{
  "contractName": "Identityyyyyyyyy",
  "abi": [
    {
      "inputs": [
        {
          "internalType": "address",
          "name": "current_add",
          "type": "address"
        },
        {
          "internalType": "string",
          "name": "name",
          "type": "string"
        },
        {
          "internalType": "string",
          "name": "phone",
          "type": "string"
        },
        {
          "internalType": "string",
          "name": "password",
          "type": "string"
        },
        {
          "internalType": "bool",
          "name": "is_Admin",
          "type": "bool"
        },
        {
          "internalType": "string",
          "name": "email",
          "type": "string"
        }
      ],
      "name": "register_user",
      "outputs": [],
      "stateMutability": "nonpayable",
      "type": "function"
    },
    {
      "inputs": [
        {
          "internalType": "address",
          "name": "current_add",
          "type": "address"
        },
        {
          "internalType": "string",
          "name": "username",
          "type": "string"
        },
        {
          "internalType": "string",
          "name": "password",
          "type": "string"
        }
      ],
      "name": "login_user",
      "outputs": [
        {
          "internalType": "bool",
          "name": "found",
          "type": "bool"
        }
      ],
      "stateMutability": "view",
      "type": "function",
      "constant": true
    },
    {
      "inputs": [
        {
          "internalType": "address",
          "name": "current_add",
          "type": "address"
        }
      ],
      "name": "user_is_Admin",
      "outputs": [
        {
          "internalType": "bool",
          "name": "",
          "type": "bool"
        }
      ],
      "stateMutability": "view",
      "type": "function",
      "constant": true
    },
    {
      "inputs": [
        {
          "internalType": "address",
          "name": "current_add",
          "type": "address"
        },
        {
          "internalType": "string",
          "name": "doc_name",
          "type": "string"
        },
        {
          "internalType": "string",
          "name": "doc_ipfsHash",
          "type": "string"
        },
        {
          "internalType": "uint256",
          "name": "doc_index",
          "type": "uint256"
        }
      ],
      "name": "upload_documents",
      "outputs": [],
      "stateMutability": "nonpayable",
      "type": "function"
    },
    {
      "inputs": [
        {
          "internalType": "address",
          "name": "current_add",
          "type": "address"
        }
      ],
      "name": "show_userdocs",
      "outputs": [
        {
          "components": [
            {
              "internalType": "string",
              "name": "name",
              "type": "string"
            },
            {
              "internalType": "string",
              "name": "ipfs_hash",
              "type": "string"
            }
          ],
          "internalType": "struct Identityyyyyyyyy.User_document[10]",
          "name": "docs",
          "type": "tuple[10]"
        }
      ],
      "stateMutability": "view",
      "type": "function",
      "constant": true
    },
    {
      "inputs": [
        {
          "internalType": "address",
          "name": "current_add",
          "type": "address"
        },
        {
          "internalType": "string",
          "name": "comp_name",
          "type": "string"
        },
        {
          "internalType": "uint256[10]",
          "name": "requested_docs",
          "type": "uint256[10]"
        }
      ],
      "name": "add_request",
      "outputs": [],
      "stateMutability": "nonpayable",
      "type": "function"
    },
    {
      "inputs": [
        {
          "internalType": "address",
          "name": "current_add",
          "type": "address"
        }
      ],
      "name": "show_user_requests",
      "outputs": [
        {
          "components": [
            {
              "internalType": "uint256",
              "name": "req_id",
              "type": "uint256"
            },
            {
              "internalType": "string",
              "name": "requested_by",
              "type": "string"
            },
            {
              "internalType": "string",
              "name": "requested_to",
              "type": "string"
            },
            {
              "internalType": "string",
              "name": "expiring_date",
              "type": "string"
            },
            {
              "internalType": "uint256[10]",
              "name": "requested_docs",
              "type": "uint256[10]"
            },
            {
              "internalType": "uint256",
              "name": "overall_status",
              "type": "uint256"
            }
          ],
          "internalType": "struct Identityyyyyyyyy.Request[]",
          "name": "",
          "type": "tuple[]"
        }
      ],
      "stateMutability": "view",
      "type": "function",
      "constant": true
    },
    {
      "inputs": [
        {
          "internalType": "string",
          "name": "comp_name",
          "type": "string"
        }
      ],
      "name": "show_company_requests",
      "outputs": [
        {
          "components": [
            {
              "internalType": "uint256",
              "name": "req_id",
              "type": "uint256"
            },
            {
              "internalType": "string",
              "name": "requested_by",
              "type": "string"
            },
            {
              "internalType": "string",
              "name": "requested_to",
              "type": "string"
            },
            {
              "internalType": "string",
              "name": "expiring_date",
              "type": "string"
            },
            {
              "internalType": "uint256[10]",
              "name": "requested_docs",
              "type": "uint256[10]"
            },
            {
              "internalType": "uint256",
              "name": "overall_status",
              "type": "uint256"
            }
          ],
          "internalType": "struct Identityyyyyyyyy.Request[]",
          "name": "",
          "type": "tuple[]"
        }
      ],
      "stateMutability": "view",
      "type": "function",
      "constant": true
    },
    {
      "inputs": [
        {
          "internalType": "string",
          "name": "comp_name",
          "type": "string"
        },
        {
          "internalType": "string",
          "name": "password",
          "type": "string"
        },
        {
          "internalType": "string",
          "name": "email",
          "type": "string"
        },
        {
          "internalType": "uint256",
          "name": "comm_reg",
          "type": "uint256"
        }
      ],
      "name": "register_comp",
      "outputs": [],
      "stateMutability": "nonpayable",
      "type": "function"
    },
    {
      "inputs": [],
      "name": "get_companies",
      "outputs": [
        {
          "components": [
            {
              "internalType": "string",
              "name": "comp_name",
              "type": "string"
            },
            {
              "internalType": "string",
              "name": "password",
              "type": "string"
            },
            {
              "internalType": "string",
              "name": "email",
              "type": "string"
            },
            {
              "internalType": "uint256",
              "name": "comm_registeration_no",
              "type": "uint256"
            },
            {
              "internalType": "uint256",
              "name": "comp_status",
              "type": "uint256"
            }
          ],
          "internalType": "struct Identityyyyyyyyy.Company[]",
          "name": "",
          "type": "tuple[]"
        }
      ],
      "stateMutability": "view",
      "type": "function",
      "constant": true
    },
    {
      "inputs": [
        {
          "internalType": "string",
          "name": "comp_name",
          "type": "string"
        },
        {
          "internalType": "uint256",
          "name": "status",
          "type": "uint256"
        }
      ],
      "name": "respond_comp_register",
      "outputs": [],
      "stateMutability": "nonpayable",
      "type": "function"
    },
    {
      "inputs": [
        {
          "internalType": "string",
          "name": "comp_name",
          "type": "string"
        },
        {
          "internalType": "string",
          "name": "password",
          "type": "string"
        }
      ],
      "name": "login_comp",
      "outputs": [
        {
          "internalType": "bool",
          "name": "",
          "type": "bool"
        }
      ],
      "stateMutability": "view",
      "type": "function",
      "constant": true
    },
    {
      "inputs": [
        {
          "internalType": "address",
          "name": "current_add",
          "type": "address"
        },
        {
          "internalType": "uint256",
          "name": "req_id",
          "type": "uint256"
        }
      ],
      "name": "view_requested_docs_user",
      "outputs": [
        {
          "internalType": "uint256[10]",
          "name": "",
          "type": "uint256[10]"
        }
      ],
      "stateMutability": "view",
      "type": "function",
      "constant": true
    },
    {
      "inputs": [
        {
          "internalType": "address",
          "name": "current_add",
          "type": "address"
        },
        {
          "internalType": "string",
          "name": "comp_name",
          "type": "string"
        },
        {
          "internalType": "uint256",
          "name": "req_id",
          "type": "uint256"
        },
        {
          "internalType": "uint256",
          "name": "req_id_comp",
          "type": "uint256"
        },
        {
          "internalType": "uint256[10]",
          "name": "respond",
          "type": "uint256[10]"
        },
        {
          "internalType": "string",
          "name": "expiring_datee",
          "type": "string"
        }
      ],
      "name": "respondto_comp_request",
      "outputs": [],
      "stateMutability": "nonpayable",
      "type": "function"
    },
    {
      "inputs": [
        {
          "internalType": "string",
          "name": "comp_name",
          "type": "string"
        },
        {
          "internalType": "uint256",
          "name": "req_id",
          "type": "uint256"
        }
      ],
      "name": "view_requested_docs_comp",
      "outputs": [
        {
          "internalType": "uint256[10]",
          "name": "",
          "type": "uint256[10]"
        }
      ],
      "stateMutability": "view",
      "type": "function",
      "constant": true
    },
    {
      "inputs": [
        {
          "internalType": "address",
          "name": "current_add",
          "type": "address"
        },
        {
          "internalType": "uint256",
          "name": "index",
          "type": "uint256"
        }
      ],
      "name": "get_ipfs_hash",
      "outputs": [
        {
          "internalType": "string",
          "name": "",
          "type": "string"
        }
      ],
      "stateMutability": "view",
      "type": "function",
      "constant": true
    },
    {
      "inputs": [
        {
          "internalType": "address",
          "name": "current_add",
          "type": "address"
        }
      ],
      "name": "get_username",
      "outputs": [
        {
          "internalType": "string",
          "name": "",
          "type": "string"
        }
      ],
      "stateMutability": "view",
      "type": "function",
      "constant": true
    }
  ],
  "bytecode": "0x6080604052600060055534801561001557600080fd5b50613032806100256000396000f3fe608060405234801561001057600080fd5b506004361061010b5760003560e01c80637de21cdb116100a2578063a2bb5d4811610071578063a2bb5d4814610302578063aeedb5da14610332578063beb5cc741461034e578063dc7ca50b1461036a578063f6da01331461039a5761010b565b80637de21cdb1461027c57806388f4b68b146102ac57806392f4c8f7146102ca57806395af7b7c146102e65761010b565b80633c44948f116100de5780633c44948f146101bc57806349c3a5f3146101ec578063720e32351461021c5780637a5d23fc1461024c5761010b565b80630f1347ae14610110578063224fe566146101405780632c3ed49e1461015c5780633bb3cf061461018c575b600080fd5b61012a60048036038101906101259190611f0c565b6103b6565b60405161013791906121e2565b60405180910390f35b61015a60048036038101906101559190612365565b610663565b005b61017660048036038101906101719190611f0c565b6106fe565b60405161018391906124bb565b60405180910390f35b6101a660048036038101906101a191906124dd565b6108ca565b6040516101b39190612570565b60405180910390f35b6101d660048036038101906101d1919061258b565b6109ca565b6040516101e39190612615565b60405180910390f35b6102066004803603810190610201919061258b565b610ab5565b6040516102139190612699565b60405180910390f35b610236600480360381019061023191906126b5565b610b6f565b6040516102439190612570565b60405180910390f35b61026660048036038101906102619190612740565b610e6e565b60405161027391906121e2565b60405180910390f35b61029660048036038101906102919190611f0c565b6110fa565b6040516102a39190612570565b60405180910390f35b6102b4611152565b6040516102c191906128cf565b60405180910390f35b6102e460048036038101906102df919061291d565b61137b565b005b61030060048036038101906102fb9190612ad0565b611481565b005b61031c60048036038101906103179190611f0c565b611803565b6040516103299190612615565b60405180910390f35b61034c60048036038101906103479190612b40565b6118d6565b005b61036860048036038101906103639190612c07565b611b40565b005b610384600480360381019061037f9190612365565b611bed565b6040516103919190612699565b60405180910390f35b6103b460048036038101906103af9190612ca6565b611c86565b005b6060600260008373ffffffffffffffffffffffffffffffffffffffff1673ffffffffffffffffffffffffffffffffffffffff168152602001908152602001600020805480602002602001604051908101604052809291908181526020016000905b8282101561065857838290600052602060002090600f02016040518060c00160405290816000820154815260200160018201805461045490612d90565b80601f016020809104026020016040519081016040528092919081815260200182805461048090612d90565b80156104cd5780601f106104a2576101008083540402835291602001916104cd565b820191906000526020600020905b8154815290600101906020018083116104b057829003601f168201915b505050505081526020016002820180546104e690612d90565b80601f016020809104026020016040519081016040528092919081815260200182805461051290612d90565b801561055f5780601f106105345761010080835404028352916020019161055f565b820191906000526020600020905b81548152906001019060200180831161054257829003601f168201915b5050505050815260200160038201805461057890612d90565b80601f01602080910402602001604051908101604052809291908181526020018280546105a490612d90565b80156105f15780601f106105c6576101008083540402835291602001916105f1565b820191906000526020600020905b8154815290600101906020018083116105d457829003601f168201915b5050505050815260200160048201600a806020026040519081016040528092919082600a8015610636576020028201915b815481526020019060010190808311610622575b50505050508152602001600e8201548152505081526020019060010190610417565b505050509050919050565b60005b6004805490508110156106f95782805190602001206004828154811061068f5761068e612dc2565b5b90600052602060002090600502016000016040516106ad9190612e90565b604051809103902014156106e65781600482815481106106d0576106cf612dc2565b5b9060005260206000209060050201600401819055505b80806106f190612ed6565b915050610666565b505050565b610706611d4c565b60005b600a8110156108c457600160008473ffffffffffffffffffffffffffffffffffffffff1673ffffffffffffffffffffffffffffffffffffffff16815260200190815260200160002081600a811061076357610762612dc2565b5b6002020160405180604001604052908160008201805461078290612d90565b80601f01602080910402602001604051908101604052809291908181526020018280546107ae90612d90565b80156107fb5780601f106107d0576101008083540402835291602001916107fb565b820191906000526020600020905b8154815290600101906020018083116107de57829003601f168201915b5050505050815260200160018201805461081490612d90565b80601f016020809104026020016040519081016040528092919081815260200182805461084090612d90565b801561088d5780601f106108625761010080835404028352916020019161088d565b820191906000526020600020905b81548152906001019060200180831161087057829003601f168201915b5050505050815250508282600a81106108a9576108a8612dc2565b5b602002018190525080806108bc90612ed6565b915050610709565b50919050565b600080600090505b6004805490508110156109be578380519060200120600482815481106108fb576108fa612dc2565b5b90600052602060002090600502016000016040516109199190612e90565b6040518091039020148015610953575060026004828154811061093f5761093e612dc2565b5b906000526020600020906005020160040154145b156109ab5782805190602001206004828154811061097457610973612dc2565b5b90600052602060002090600502016001016040516109929190612e90565b604051809103902014156109aa5760019150506109c4565b5b80806109b690612ed6565b9150506108d2565b50600090505b92915050565b6060600160008473ffffffffffffffffffffffffffffffffffffffff1673ffffffffffffffffffffffffffffffffffffffff16815260200190815260200160002082600a8110610a1d57610a1c612dc2565b5b600202016001018054610a2f90612d90565b80601f0160208091040260200160405190810160405280929190818152602001828054610a5b90612d90565b8015610aa85780601f10610a7d57610100808354040283529160200191610aa8565b820191906000526020600020905b815481529060010190602001808311610a8b57829003601f168201915b5050505050905092915050565b610abd611d7a565b600260008473ffffffffffffffffffffffffffffffffffffffff1673ffffffffffffffffffffffffffffffffffffffff168152602001908152602001600020600183610b099190612f1f565b81548110610b1a57610b19612dc2565b5b90600052602060002090600f0201600401600a806020026040519081016040528092919082600a8015610b62576020028201915b815481526020019060010190808311610b4e575b5050505050905092915050565b6000806000808673ffffffffffffffffffffffffffffffffffffffff1673ffffffffffffffffffffffffffffffffffffffff1681526020019081526020016000206040518060a0016040529081600082018054610bcb90612d90565b80601f0160208091040260200160405190810160405280929190818152602001828054610bf790612d90565b8015610c445780601f10610c1957610100808354040283529160200191610c44565b820191906000526020600020905b815481529060010190602001808311610c2757829003601f168201915b50505050508152602001600182018054610c5d90612d90565b80601f0160208091040260200160405190810160405280929190818152602001828054610c8990612d90565b8015610cd65780601f10610cab57610100808354040283529160200191610cd6565b820191906000526020600020905b815481529060010190602001808311610cb957829003601f168201915b50505050508152602001600282018054610cef90612d90565b80601f0160208091040260200160405190810160405280929190818152602001828054610d1b90612d90565b8015610d685780601f10610d3d57610100808354040283529160200191610d68565b820191906000526020600020905b815481529060010190602001808311610d4b57829003601f168201915b505050505081526020016003820160009054906101000a900460ff16151515158152602001600482018054610d9c90612d90565b80601f0160208091040260200160405190810160405280929190818152602001828054610dc890612d90565b8015610e155780601f10610dea57610100808354040283529160200191610e15565b820191906000526020600020905b815481529060010190602001808311610df857829003601f168201915b50505050508152505090508380519060200120816000015180519060200120148015610e5257508280519060200120816040015180519060200120145b15610e61576001915050610e67565b60009150505b9392505050565b6060600382604051610e809190612f8f565b9081526020016040518091039020805480602002602001604051908101604052809291908181526020016000905b828210156110ef57838290600052602060002090600f02016040518060c001604052908160008201548152602001600182018054610eeb90612d90565b80601f0160208091040260200160405190810160405280929190818152602001828054610f1790612d90565b8015610f645780601f10610f3957610100808354040283529160200191610f64565b820191906000526020600020905b815481529060010190602001808311610f4757829003601f168201915b50505050508152602001600282018054610f7d90612d90565b80601f0160208091040260200160405190810160405280929190818152602001828054610fa990612d90565b8015610ff65780601f10610fcb57610100808354040283529160200191610ff6565b820191906000526020600020905b815481529060010190602001808311610fd957829003601f168201915b5050505050815260200160038201805461100f90612d90565b80601f016020809104026020016040519081016040528092919081815260200182805461103b90612d90565b80156110885780601f1061105d57610100808354040283529160200191611088565b820191906000526020600020905b81548152906001019060200180831161106b57829003601f168201915b5050505050815260200160048201600a806020026040519081016040528092919082600a80156110cd576020028201915b8154815260200190600101908083116110b9575b50505050508152602001600e8201548152505081526020019060010190610eae565b505050509050919050565b60008060008373ffffffffffffffffffffffffffffffffffffffff1673ffffffffffffffffffffffffffffffffffffffff16815260200190815260200160002060030160009054906101000a900460ff169050919050565b60606004805480602002602001604051908101604052809291908181526020016000905b8282101561137257838290600052602060002090600502016040518060a00160405290816000820180546111a990612d90565b80601f01602080910402602001604051908101604052809291908181526020018280546111d590612d90565b80156112225780601f106111f757610100808354040283529160200191611222565b820191906000526020600020905b81548152906001019060200180831161120557829003601f168201915b5050505050815260200160018201805461123b90612d90565b80601f016020809104026020016040519081016040528092919081815260200182805461126790612d90565b80156112b45780601f10611289576101008083540402835291602001916112b4565b820191906000526020600020905b81548152906001019060200180831161129757829003601f168201915b505050505081526020016002820180546112cd90612d90565b80601f01602080910402602001604051908101604052809291908181526020018280546112f990612d90565b80156113465780601f1061131b57610100808354040283529160200191611346565b820191906000526020600020905b81548152906001019060200180831161132957829003601f168201915b505050505081526020016003820154815260200160048201548152505081526020019060010190611176565b50505050905090565b6040518060a001604052808681526020018581526020018481526020018315158152602001828152506000808873ffffffffffffffffffffffffffffffffffffffff1673ffffffffffffffffffffffffffffffffffffffff16815260200190815260200160002060008201518160000190805190602001906113fe929190611d9d565b50602082015181600101908051906020019061141b929190611d9d565b506040820151816002019080519060200190611438929190611d9d565b5060608201518160030160006101000a81548160ff0219169083151502179055506080820151816004019080519060200190611475929190611d9d565b50905050505050505050565b60008060008573ffffffffffffffffffffffffffffffffffffffff1673ffffffffffffffffffffffffffffffffffffffff16815260200190815260200160002060000180546114cf90612d90565b80601f01602080910402602001604051908101604052809291908181526020018280546114fb90612d90565b80156115485780601f1061151d57610100808354040283529160200191611548565b820191906000526020600020905b81548152906001019060200180831161152b57829003601f168201915b50505050509050600260008573ffffffffffffffffffffffffffffffffffffffff1673ffffffffffffffffffffffffffffffffffffffff1681526020019081526020016000206040518060c001604052806001600260008973ffffffffffffffffffffffffffffffffffffffff1673ffffffffffffffffffffffffffffffffffffffff168152602001908152602001600020805490506115e89190612fa6565b8152602001858152602001838152602001604051806020016040528060008152508152602001848152602001600181525090806001815401808255809150506001900390600052602060002090600f0201600090919091909150600082015181600001556020820151816001019080519060200190611668929190611d9d565b506040820151816002019080519060200190611685929190611d9d565b5060608201518160030190805190602001906116a2929190611d9d565b5060808201518160040190600a6116ba929190611e23565b5060a082015181600e015550506003836040516116d79190612f8f565b90815260200160405180910390206040518060c0016040528060016003876040516117029190612f8f565b90815260200160405180910390208054905061171e9190612fa6565b8152602001858152602001838152602001604051806020016040528060008152508152602001848152602001600181525090806001815401808255809150506001900390600052602060002090600f020160009091909190915060008201518160000155602082015181600101908051906020019061179e929190611d9d565b5060408201518160020190805190602001906117bb929190611d9d565b5060608201518160030190805190602001906117d8929190611d9d565b5060808201518160040190600a6117f0929190611e23565b5060a082015181600e0155505050505050565b60606000808373ffffffffffffffffffffffffffffffffffffffff1673ffffffffffffffffffffffffffffffffffffffff168152602001908152602001600020600001805461185190612d90565b80601f016020809104026020016040519081016040528092919081815260200182805461187d90612d90565b80156118ca5780601f1061189f576101008083540402835291602001916118ca565b820191906000526020600020905b8154815290600101906020018083116118ad57829003601f168201915b50505050509050919050565b816003866040516118e79190612f8f565b9081526020016040518091039020848154811061190757611906612dc2565b5b90600052602060002090600f020160040190600a611926929190611e23565b50806003866040516119389190612f8f565b9081526020016040518091039020848154811061195857611957612dc2565b5b90600052602060002090600f0201600301908051906020019061197c929190611d9d565b50600260038660405161198f9190612f8f565b908152602001604051809103902084815481106119af576119ae612dc2565b5b90600052602060002090600f0201600e018190555081600260008873ffffffffffffffffffffffffffffffffffffffff1673ffffffffffffffffffffffffffffffffffffffff168152602001908152602001600020600186611a119190612f1f565b81548110611a2257611a21612dc2565b5b90600052602060002090600f020160040190600a611a41929190611e23565b5060028060008873ffffffffffffffffffffffffffffffffffffffff1673ffffffffffffffffffffffffffffffffffffffff168152602001908152602001600020600186611a8f9190612f1f565b81548110611aa057611a9f612dc2565b5b90600052602060002090600f0201600e018190555080600260008873ffffffffffffffffffffffffffffffffffffffff1673ffffffffffffffffffffffffffffffffffffffff168152602001908152602001600020600186611b029190612f1f565b81548110611b1357611b12612dc2565b5b90600052602060002090600f02016003019080519060200190611b37929190611d9d565b50505050505050565b604051806040016040528084815260200183815250600160008673ffffffffffffffffffffffffffffffffffffffff1673ffffffffffffffffffffffffffffffffffffffff16815260200190815260200160002082600a8110611ba657611ba5612dc2565b5b600202016000820151816000019080519060200190611bc6929190611d9d565b506020820151816001019080519060200190611be3929190611d9d565b5090505050505050565b611bf5611d7a565b600383604051611c059190612f8f565b9081526020016040518091039020600183611c209190612f1f565b81548110611c3157611c30612dc2565b5b90600052602060002090600f0201600401600a806020026040519081016040528092919082600a8015611c79576020028201915b815481526020019060010190808311611c65575b5050505050905092915050565b60046040518060a00160405280868152602001858152602001848152602001838152602001600181525090806001815401808255809150506001900390600052602060002090600502016000909190919091506000820151816000019080519060200190611cf5929190611d9d565b506020820151816001019080519060200190611d12929190611d9d565b506040820151816002019080519060200190611d2f929190611d9d565b506060820151816003015560808201518160040155505050505050565b604051806101400160405280600a905b611d64611e63565b815260200190600190039081611d5c5790505090565b604051806101400160405280600a90602082028036833780820191505090505090565b828054611da990612d90565b90600052602060002090601f016020900481019282611dcb5760008555611e12565b82601f10611de457805160ff1916838001178555611e12565b82800160010185558215611e12579182015b82811115611e11578251825591602001919060010190611df6565b5b509050611e1f9190611e7d565b5090565b82600a8101928215611e52579160200282015b82811115611e51578251825591602001919060010190611e36565b5b509050611e5f9190611e7d565b5090565b604051806040016040528060608152602001606081525090565b5b80821115611e96576000816000905550600101611e7e565b5090565b6000604051905090565b600080fd5b600080fd5b600073ffffffffffffffffffffffffffffffffffffffff82169050919050565b6000611ed982611eae565b9050919050565b611ee981611ece565b8114611ef457600080fd5b50565b600081359050611f0681611ee0565b92915050565b600060208284031215611f2257611f21611ea4565b5b6000611f3084828501611ef7565b91505092915050565b600081519050919050565b600082825260208201905092915050565b6000819050602082019050919050565b6000819050919050565b611f7881611f65565b82525050565b600081519050919050565b600082825260208201905092915050565b60005b83811015611fb8578082015181840152602081019050611f9d565b83811115611fc7576000848401525b50505050565b6000601f19601f8301169050919050565b6000611fe982611f7e565b611ff38185611f89565b9350612003818560208601611f9a565b61200c81611fcd565b840191505092915050565b6000600a9050919050565b600081905092915050565b6000819050919050565b60006120438383611f6f565b60208301905092915050565b6000602082019050919050565b61206581612017565b61206f8184612022565b925061207a8261202d565b8060005b838110156120ab5781516120928782612037565b965061209d8361204f565b92505060018101905061207e565b505050505050565b60006101e0830160008301516120cc6000860182611f6f565b50602083015184820360208601526120e48282611fde565b915050604083015184820360408601526120fe8282611fde565b915050606083015184820360608601526121188282611fde565b915050608083015161212d608086018261205c565b5060a08301516121416101c0860182611f6f565b508091505092915050565b600061215883836120b3565b905092915050565b6000602082019050919050565b600061217882611f39565b6121828185611f44565b93508360208202850161219485611f55565b8060005b858110156121d057848403895281516121b1858261214c565b94506121bc83612160565b925060208a01995050600181019050612198565b50829750879550505050505092915050565b600060208201905081810360008301526121fc818461216d565b905092915050565b600080fd5b600080fd5b7f4e487b7100000000000000000000000000000000000000000000000000000000600052604160045260246000fd5b61224682611fcd565b810181811067ffffffffffffffff821117156122655761226461220e565b5b80604052505050565b6000612278611e9a565b9050612284828261223d565b919050565b600067ffffffffffffffff8211156122a4576122a361220e565b5b6122ad82611fcd565b9050602081019050919050565b82818337600083830152505050565b60006122dc6122d784612289565b61226e565b9050828152602081018484840111156122f8576122f7612209565b5b6123038482856122ba565b509392505050565b600082601f8301126123205761231f612204565b5b81356123308482602086016122c9565b91505092915050565b61234281611f65565b811461234d57600080fd5b50565b60008135905061235f81612339565b92915050565b6000806040838503121561237c5761237b611ea4565b5b600083013567ffffffffffffffff81111561239a57612399611ea9565b5b6123a68582860161230b565b92505060206123b785828601612350565b9150509250929050565b6000600a9050919050565b600081905092915050565b6000819050919050565b600060408301600083015184820360008601526123fe8282611fde565b915050602083015184820360208601526124188282611fde565b9150508091505092915050565b600061243183836123e1565b905092915050565b6000602082019050919050565b6000612451826123c1565b61245b81856123cc565b93508360208202850161246d856123d7565b8060005b858110156124a9578484038952815161248a8582612425565b945061249583612439565b925060208a01995050600181019050612471565b50829750879550505050505092915050565b600060208201905081810360008301526124d58184612446565b905092915050565b600080604083850312156124f4576124f3611ea4565b5b600083013567ffffffffffffffff81111561251257612511611ea9565b5b61251e8582860161230b565b925050602083013567ffffffffffffffff81111561253f5761253e611ea9565b5b61254b8582860161230b565b9150509250929050565b60008115159050919050565b61256a81612555565b82525050565b60006020820190506125856000830184612561565b92915050565b600080604083850312156125a2576125a1611ea4565b5b60006125b085828601611ef7565b92505060206125c185828601612350565b9150509250929050565b600082825260208201905092915050565b60006125e782611f7e565b6125f181856125cb565b9350612601818560208601611f9a565b61260a81611fcd565b840191505092915050565b6000602082019050818103600083015261262f81846125dc565b905092915050565b600081905092915050565b61264b81612017565b6126558184612637565b92506126608261202d565b8060005b838110156126915781516126788782612037565b96506126838361204f565b925050600181019050612664565b505050505050565b6000610140820190506126af6000830184612642565b92915050565b6000806000606084860312156126ce576126cd611ea4565b5b60006126dc86828701611ef7565b935050602084013567ffffffffffffffff8111156126fd576126fc611ea9565b5b6127098682870161230b565b925050604084013567ffffffffffffffff81111561272a57612729611ea9565b5b6127368682870161230b565b9150509250925092565b60006020828403121561275657612755611ea4565b5b600082013567ffffffffffffffff81111561277457612773611ea9565b5b6127808482850161230b565b91505092915050565b600081519050919050565b600082825260208201905092915050565b6000819050602082019050919050565b600060a08301600083015184820360008601526127d28282611fde565b915050602083015184820360208601526127ec8282611fde565b915050604083015184820360408601526128068282611fde565b915050606083015161281b6060860182611f6f565b50608083015161282e6080860182611f6f565b508091505092915050565b600061284583836127b5565b905092915050565b6000602082019050919050565b600061286582612789565b61286f8185612794565b935083602082028501612881856127a5565b8060005b858110156128bd578484038952815161289e8582612839565b94506128a98361284d565b925060208a01995050600181019050612885565b50829750879550505050505092915050565b600060208201905081810360008301526128e9818461285a565b905092915050565b6128fa81612555565b811461290557600080fd5b50565b600081359050612917816128f1565b92915050565b60008060008060008060c0878903121561293a57612939611ea4565b5b600061294889828a01611ef7565b965050602087013567ffffffffffffffff81111561296957612968611ea9565b5b61297589828a0161230b565b955050604087013567ffffffffffffffff81111561299657612995611ea9565b5b6129a289828a0161230b565b945050606087013567ffffffffffffffff8111156129c3576129c2611ea9565b5b6129cf89828a0161230b565b93505060806129e089828a01612908565b92505060a087013567ffffffffffffffff811115612a0157612a00611ea9565b5b612a0d89828a0161230b565b9150509295509295509295565b600067ffffffffffffffff821115612a3557612a3461220e565b5b602082029050919050565b600080fd5b6000612a58612a5384612a1a565b61226e565b90508060208402830185811115612a7257612a71612a40565b5b835b81811015612a9b5780612a878882612350565b845260208401935050602081019050612a74565b5050509392505050565b600082601f830112612aba57612ab9612204565b5b600a612ac7848285612a45565b91505092915050565b60008060006101808486031215612aea57612ae9611ea4565b5b6000612af886828701611ef7565b935050602084013567ffffffffffffffff811115612b1957612b18611ea9565b5b612b258682870161230b565b9250506040612b3686828701612aa5565b9150509250925092565b6000806000806000806101e08789031215612b5e57612b5d611ea4565b5b6000612b6c89828a01611ef7565b965050602087013567ffffffffffffffff811115612b8d57612b8c611ea9565b5b612b9989828a0161230b565b9550506040612baa89828a01612350565b9450506060612bbb89828a01612350565b9350506080612bcc89828a01612aa5565b9250506101c087013567ffffffffffffffff811115612bee57612bed611ea9565b5b612bfa89828a0161230b565b9150509295509295509295565b60008060008060808587031215612c2157612c20611ea4565b5b6000612c2f87828801611ef7565b945050602085013567ffffffffffffffff811115612c5057612c4f611ea9565b5b612c5c8782880161230b565b935050604085013567ffffffffffffffff811115612c7d57612c7c611ea9565b5b612c898782880161230b565b9250506060612c9a87828801612350565b91505092959194509250565b60008060008060808587031215612cc057612cbf611ea4565b5b600085013567ffffffffffffffff811115612cde57612cdd611ea9565b5b612cea8782880161230b565b945050602085013567ffffffffffffffff811115612d0b57612d0a611ea9565b5b612d178782880161230b565b935050604085013567ffffffffffffffff811115612d3857612d37611ea9565b5b612d448782880161230b565b9250506060612d5587828801612350565b91505092959194509250565b7f4e487b7100000000000000000000000000000000000000000000000000000000600052602260045260246000fd5b60006002820490506001821680612da857607f821691505b60208210811415612dbc57612dbb612d61565b5b50919050565b7f4e487b7100000000000000000000000000000000000000000000000000000000600052603260045260246000fd5b600081905092915050565b60008190508160005260206000209050919050565b60008154612e1e81612d90565b612e288186612df1565b94506001821660008114612e435760018114612e5457612e87565b60ff19831686528186019350612e87565b612e5d85612dfc565b60005b83811015612e7f57815481890152600182019150602081019050612e60565b838801955050505b50505092915050565b6000612e9c8284612e11565b915081905092915050565b7f4e487b7100000000000000000000000000000000000000000000000000000000600052601160045260246000fd5b6000612ee182611f65565b91507fffffffffffffffffffffffffffffffffffffffffffffffffffffffffffffffff821415612f1457612f13612ea7565b5b600182019050919050565b6000612f2a82611f65565b9150612f3583611f65565b925082821015612f4857612f47612ea7565b5b828203905092915050565b600081905092915050565b6000612f6982611f7e565b612f738185612f53565b9350612f83818560208601611f9a565b80840191505092915050565b6000612f9b8284612f5e565b915081905092915050565b6000612fb182611f65565b9150612fbc83611f65565b9250827fffffffffffffffffffffffffffffffffffffffffffffffffffffffffffffffff03821115612ff157612ff0612ea7565b5b82820190509291505056fea2646970667358221220f9eed70bf879cbd1625c84cb76a5c2f88aa14c6c285e6002789c8db1830260a164736f6c634300080b0033",
  "immutableReferences": {},
  "source": "// SPDX-License-Identifier: MIT\r\npragma solidity >=0.4.22 <0.9.0;\r\n\r\ncontract Identityyyyyyyyy{\r\n    \r\n       struct User{\r\n       string username;\r\n       string phone;\r\n       string password;\r\n       bool is_admin;\r\n       string email;\r\n   }\r\n\r\n      struct User_document\r\n      {\r\n       string name;\r\n       string ipfs_hash;\r\n      }\r\n\r\n      struct Request{\r\n          uint req_id;\r\n          string requested_by;\r\n          string requested_to;\r\n          /* status\r\n           0 ----- null\r\n           1 ----- requested\r\n           2 ----- approved\r\n           3 ----- rejected\r\n          */\r\n          string expiring_date;\r\n          uint[10] requested_docs; // index => requested docs , value => status of doc\r\n          uint overall_status;  // 1 --> pending   // 2 --> responded\r\n      }\r\n\r\n     struct Company{\r\n       string comp_name;         //unique name\r\n       string password;\r\n       string email;\r\n       uint comm_registeration_no; \r\n       uint comp_status;   //1 pending //2 accepted // 3 rejected\r\n     }\r\n    \r\n    mapping(address => User) user_map;\r\n    mapping(address => User_document[10]) user_docs_map;\r\n    mapping(address => Request[]) user_requests_map;\r\n    mapping(string => Request[]) comp_requests_map;\r\n    Company[] companies;\r\n    uint count_req_id = 0; // ++ to generate req_id\r\n\r\n    //user register , address = current log in address in meta mask\r\n\r\n\r\n   function register_user (address current_add , string memory name , string memory phone , string memory password  , bool is_Admin, string memory email) public\r\n   {    \r\n        user_map[current_add] = User(name,phone,password,is_Admin,email);\r\n   }\r\n\r\n\r\n   function login_user (address current_add , string memory username , string memory password) public view returns(bool found)\r\n   {\r\n        User memory find_user = user_map[current_add];\r\n        \r\n        // str compare keccak256(bytes(a)) == keccak256(bytes(b));\r\n        if(keccak256(bytes(find_user.username)) == keccak256(bytes(username)) && keccak256(bytes(find_user.password)) == keccak256(bytes(password)))\r\n         return true;\r\n        else\r\n         return false;\r\n   }\r\n\r\n   function user_is_Admin(address current_add) public view returns(bool)\r\n   {\r\n       return user_map[current_add].is_admin;\r\n   }\r\n\r\n   function upload_documents(address current_add , string memory doc_name , string memory doc_ipfsHash , uint doc_index)public\r\n   {\r\n      // user_docs_map[current_add].push(User_document(doc_name , doc_ipfsHash ));\r\n        user_docs_map[current_add][doc_index] = User_document(doc_name,doc_ipfsHash);\r\n   }\r\n   \r\n   function show_userdocs(address current_add)public view returns(User_document[10] memory docs)\r\n   {   \r\n       for(uint i=0; i<10; i++)\r\n       {\r\n           docs[i] = user_docs_map[current_add][i];\r\n       }\r\n       return docs;\r\n   }\r\n\r\n   function add_request(address current_add , string memory comp_name , uint[10] memory requested_docs) public{\r\n\r\n       string memory requested_to = user_map[current_add].username;\r\n       user_requests_map[current_add].push(Request(user_requests_map[current_add].length+1,comp_name,requested_to,\"\",requested_docs,1));\r\n       comp_requests_map[comp_name].push(Request(comp_requests_map[comp_name].length+1,comp_name,requested_to,\"\",requested_docs,1));\r\n   }\r\n\r\n    function show_user_requests(address current_add)public view returns(Request[] memory){\r\n        return user_requests_map[current_add];\r\n   }\r\n   \r\n   function show_company_requests(string memory comp_name)public view returns(Request[] memory){\r\n        return comp_requests_map[comp_name];\r\n   }\r\n\r\n   function register_comp(string memory comp_name , string memory password , string memory email , uint  comm_reg )public \r\n    {\r\n        companies.push(Company(comp_name,password,email,comm_reg,1));\r\n    }\r\n    \r\n    function get_companies() public view returns(Company[] memory)\r\n    {\r\n      return companies;\r\n    }\r\n  \r\n\r\n   // admin function\r\n\r\n   function respond_comp_register(string memory comp_name , uint status) public{\r\n\r\n       for(uint i=0;i<companies.length;i++)\r\n       {\r\n           if(keccak256(bytes(companies[i].comp_name)) == keccak256(bytes(comp_name))){\r\n               companies[i].comp_status = status;\r\n           }\r\n       }\r\n   }\r\n\r\n   function login_comp(string memory comp_name , string memory password)public view returns(bool){\r\n     for(uint i=0;i<companies.length;i++)\r\n       {   \r\n           if(keccak256(bytes(companies[i].comp_name)) == keccak256(bytes(comp_name))&&companies[i].comp_status==2){\r\n               if(keccak256(bytes(companies[i].password)) == keccak256(bytes(password)))\r\n               return true;\r\n           }\r\n       }\r\n       return false;\r\n   }\r\n\r\n   function view_requested_docs_user(address current_add, uint req_id) public view returns(uint[10] memory){\r\n            return  user_requests_map[current_add][req_id-1].requested_docs;\r\n   }\r\n\r\n   function respondto_comp_request(address current_add,string memory comp_name,uint req_id,uint req_id_comp,uint[10] memory respond,string memory expiring_datee)public{\r\n             \r\n            comp_requests_map[comp_name][req_id_comp].requested_docs = respond;\r\n            comp_requests_map[comp_name][req_id_comp].expiring_date = expiring_datee;\r\n             comp_requests_map[comp_name][req_id_comp].overall_status = 2;\r\n             user_requests_map[current_add][req_id-1].requested_docs = respond;           \r\n             user_requests_map[current_add][req_id-1].overall_status = 2;\r\n             user_requests_map[current_add][req_id-1].expiring_date = expiring_datee;\r\n   }\r\n\r\n   function view_requested_docs_comp(string memory comp_name, uint req_id) public view returns(uint[10] memory){\r\n            return  comp_requests_map[comp_name][req_id-1].requested_docs;\r\n   }\r\n\r\n   function get_ipfs_hash(address current_add , uint index)public view returns(string memory)\r\n   {\r\n       return user_docs_map[current_add][index].ipfs_hash;\r\n   }\r\n\r\n   function get_username(address current_add) public view returns(string memory)\r\n   {\r\n       return user_map[current_add].username;\r\n   }\r\n   \r\n}",
  "sourcePath": "M:\\fgpreact 2\\contracts\\IdentityManagement.sol",
  "compiler": {
    "name": "solc",
    "version": "0.8.11+commit.d7f03943.Emscripten.clang"
  },
  "schemaVersion": "3.4.5",
  "updatedAt": "2022-05-17T00:05:56.785Z",
  "networkType": "ethereum",
  "devdoc": {
    "kind": "dev",
    "methods": {},
    "version": 1
  },
  "userdoc": {
    "kind": "user",
    "methods": {},
    "version": 1
  }
}